{
  "_format": "hh-sol-artifact-1",
  "contractName": "RealEstate",
  "sourceName": "contracts/RealEstate.sol",
  "abi": [
    {
      "inputs": [],
      "stateMutability": "nonpayable",
      "type": "constructor"
    },
    {
      "anonymous": false,
      "inputs": [
        {
          "indexed": true,
          "internalType": "address",
          "name": "owner",
          "type": "address"
        },
        {
          "indexed": true,
          "internalType": "address",
          "name": "approved",
          "type": "address"
        },
        {
          "indexed": true,
          "internalType": "uint256",
          "name": "tokenId",
          "type": "uint256"
        }
      ],
      "name": "Approval",
      "type": "event"
    },
    {
      "anonymous": false,
      "inputs": [
        {
          "indexed": true,
          "internalType": "address",
          "name": "owner",
          "type": "address"
        },
        {
          "indexed": true,
          "internalType": "address",
          "name": "operator",
          "type": "address"
        },
        {
          "indexed": false,
          "internalType": "bool",
          "name": "approved",
          "type": "bool"
        }
      ],
      "name": "ApprovalForAll",
      "type": "event"
    },
    {
      "anonymous": false,
      "inputs": [
        {
          "indexed": true,
          "internalType": "address",
          "name": "from",
          "type": "address"
        },
        {
          "indexed": true,
          "internalType": "address",
          "name": "to",
          "type": "address"
        },
        {
          "indexed": true,
          "internalType": "uint256",
          "name": "tokenId",
          "type": "uint256"
        }
      ],
      "name": "Transfer",
      "type": "event"
    },
    {
      "inputs": [
        {
          "internalType": "address",
          "name": "to",
          "type": "address"
        },
        {
          "internalType": "uint256",
          "name": "tokenId",
          "type": "uint256"
        }
      ],
      "name": "approve",
      "outputs": [],
      "stateMutability": "nonpayable",
      "type": "function"
    },
    {
      "inputs": [
        {
          "internalType": "address",
          "name": "owner",
          "type": "address"
        }
      ],
      "name": "balanceOf",
      "outputs": [
        {
          "internalType": "uint256",
          "name": "",
          "type": "uint256"
        }
      ],
      "stateMutability": "view",
      "type": "function"
    },
    {
      "inputs": [
        {
          "internalType": "uint256",
          "name": "tokenId",
          "type": "uint256"
        }
      ],
      "name": "getApproved",
      "outputs": [
        {
          "internalType": "address",
          "name": "",
          "type": "address"
        }
      ],
      "stateMutability": "view",
      "type": "function"
    },
    {
      "inputs": [
        {
          "internalType": "address",
          "name": "owner",
          "type": "address"
        },
        {
          "internalType": "address",
          "name": "operator",
          "type": "address"
        }
      ],
      "name": "isApprovedForAll",
      "outputs": [
        {
          "internalType": "bool",
          "name": "",
          "type": "bool"
        }
      ],
      "stateMutability": "view",
      "type": "function"
    },
    {
      "inputs": [
        {
          "internalType": "string",
          "name": "tokenURI",
          "type": "string"
        }
      ],
      "name": "mint",
      "outputs": [
        {
          "internalType": "uint256",
          "name": "",
          "type": "uint256"
        }
      ],
      "stateMutability": "nonpayable",
      "type": "function"
    },
    {
      "inputs": [],
      "name": "name",
      "outputs": [
        {
          "internalType": "string",
          "name": "",
          "type": "string"
        }
      ],
      "stateMutability": "view",
      "type": "function"
    },
    {
      "inputs": [
        {
          "internalType": "uint256",
          "name": "tokenId",
          "type": "uint256"
        }
      ],
      "name": "ownerOf",
      "outputs": [
        {
          "internalType": "address",
          "name": "",
          "type": "address"
        }
      ],
      "stateMutability": "view",
      "type": "function"
    },
    {
      "inputs": [
        {
          "internalType": "address",
          "name": "from",
          "type": "address"
        },
        {
          "internalType": "address",
          "name": "to",
          "type": "address"
        },
        {
          "internalType": "uint256",
          "name": "tokenId",
          "type": "uint256"
        }
      ],
      "name": "safeTransferFrom",
      "outputs": [],
      "stateMutability": "nonpayable",
      "type": "function"
    },
    {
      "inputs": [
        {
          "internalType": "address",
          "name": "from",
          "type": "address"
        },
        {
          "internalType": "address",
          "name": "to",
          "type": "address"
        },
        {
          "internalType": "uint256",
          "name": "tokenId",
          "type": "uint256"
        },
        {
          "internalType": "bytes",
          "name": "data",
          "type": "bytes"
        }
      ],
      "name": "safeTransferFrom",
      "outputs": [],
      "stateMutability": "nonpayable",
      "type": "function"
    },
    {
      "inputs": [
        {
          "internalType": "address",
          "name": "operator",
          "type": "address"
        },
        {
          "internalType": "bool",
          "name": "approved",
          "type": "bool"
        }
      ],
      "name": "setApprovalForAll",
      "outputs": [],
      "stateMutability": "nonpayable",
      "type": "function"
    },
    {
      "inputs": [
        {
          "internalType": "bytes4",
          "name": "interfaceId",
          "type": "bytes4"
        }
      ],
      "name": "supportsInterface",
      "outputs": [
        {
          "internalType": "bool",
          "name": "",
          "type": "bool"
        }
      ],
      "stateMutability": "view",
      "type": "function"
    },
    {
      "inputs": [],
      "name": "symbol",
      "outputs": [
        {
          "internalType": "string",
          "name": "",
          "type": "string"
        }
      ],
      "stateMutability": "view",
      "type": "function"
    },
    {
      "inputs": [
        {
          "internalType": "uint256",
          "name": "tokenId",
          "type": "uint256"
        }
      ],
      "name": "tokenURI",
      "outputs": [
        {
          "internalType": "string",
          "name": "",
          "type": "string"
        }
      ],
      "stateMutability": "view",
      "type": "function"
    },
    {
      "inputs": [],
      "name": "totalSupply",
      "outputs": [
        {
          "internalType": "uint256",
          "name": "",
          "type": "uint256"
        }
      ],
      "stateMutability": "view",
      "type": "function"
    },
    {
      "inputs": [
        {
          "internalType": "address",
          "name": "from",
          "type": "address"
        },
        {
          "internalType": "address",
          "name": "to",
          "type": "address"
        },
        {
          "internalType": "uint256",
          "name": "tokenId",
          "type": "uint256"
        }
      ],
      "name": "transferFrom",
      "outputs": [],
      "stateMutability": "nonpayable",
      "type": "function"
    }
  ],
  "bytecode": "0x60806040523480156200001157600080fd5b506040518060400160405280600b81526020017f5265616c204573746174650000000000000000000000000000000000000000008152506040518060400160405280600481526020017f5245414c00000000000000000000000000000000000000000000000000000000815250816000908051906020019062000096929190620000b8565b508060019080519060200190620000af929190620000b8565b505050620001cd565b828054620000c69062000168565b90600052602060002090601f016020900481019282620000ea576000855562000136565b82601f106200010557805160ff191683800117855562000136565b8280016001018555821562000136579182015b828111156200013557825182559160200191906001019062000118565b5b50905062000145919062000149565b5090565b5b80821115620001645760008160009055506001016200014a565b5090565b600060028204905060018216806200018157607f821691505b602082108114156200019857620001976200019e565b5b50919050565b7f4e487b7100000000000000000000000000000000000000000000000000000000600052602260045260246000fd5b61297280620001dd6000396000f3fe608060405234801561001057600080fd5b50600436106100f55760003560e01c80636352211e11610097578063b88d4fde11610066578063b88d4fde14610284578063c87b56dd146102a0578063d85d3d27146102d0578063e985e9c514610300576100f5565b80636352211e146101ea57806370a082311461021a57806395d89b411461024a578063a22cb46514610268576100f5565b8063095ea7b3116100d3578063095ea7b31461017857806318160ddd1461019457806323b872dd146101b257806342842e0e146101ce576100f5565b806301ffc9a7146100fa57806306fdde031461012a578063081812fc14610148575b600080fd5b610114600480360381019061010f9190611ddf565b610330565b604051610121919061219a565b60405180910390f35b610132610412565b60405161013f91906121b5565b60405180910390f35b610162600480360381019061015d9190611e72565b6104a4565b60405161016f9190612133565b60405180910390f35b610192600480360381019061018d9190611da3565b6104ea565b005b61019c610602565b6040516101a99190612357565b60405180910390f35b6101cc60048036038101906101c79190611c9d565b610613565b005b6101e860048036038101906101e39190611c9d565b610673565b005b61020460048036038101906101ff9190611e72565b610693565b6040516102119190612133565b60405180910390f35b610234600480360381019061022f9190611c38565b61071a565b6040516102419190612357565b60405180910390f35b6102526107d2565b60405161025f91906121b5565b60405180910390f35b610282600480360381019061027d9190611d67565b610864565b005b61029e60048036038101906102999190611cec565b61087a565b005b6102ba60048036038101906102b59190611e72565b6108dc565b6040516102c791906121b5565b60405180910390f35b6102ea60048036038101906102e59190611e31565b6109ef565b6040516102f79190612357565b60405180910390f35b61031a60048036038101906103159190611c61565b610a26565b604051610327919061219a565b60405180910390f35b60007f80ac58cd000000000000000000000000000000000000000000000000000000007bffffffffffffffffffffffffffffffffffffffffffffffffffffffff1916827bffffffffffffffffffffffffffffffffffffffffffffffffffffffff191614806103fb57507f5b5e139f000000000000000000000000000000000000000000000000000000007bffffffffffffffffffffffffffffffffffffffffffffffffffffffff1916827bffffffffffffffffffffffffffffffffffffffffffffffffffffffff1916145b8061040b575061040a82610aba565b5b9050919050565b606060008054610421906124f2565b80601f016020809104026020016040519081016040528092919081815260200182805461044d906124f2565b801561049a5780601f1061046f5761010080835404028352916020019161049a565b820191906000526020600020905b81548152906001019060200180831161047d57829003601f168201915b5050505050905090565b60006104af82610b24565b6004600083815260200190815260200160002060009054906101000a900473ffffffffffffffffffffffffffffffffffffffff169050919050565b60006104f582610693565b90508073ffffffffffffffffffffffffffffffffffffffff168373ffffffffffffffffffffffffffffffffffffffff161415610566576040517f08c379a000000000000000000000000000000000000000000000000000000000815260040161055d90612317565b60405180910390fd5b8073ffffffffffffffffffffffffffffffffffffffff16610585610b6f565b73ffffffffffffffffffffffffffffffffffffffff1614806105b457506105b3816105ae610b6f565b610a26565b5b6105f3576040517f08c379a00000000000000000000000000000000000000000000000000000000081526004016105ea90612337565b60405180910390fd5b6105fd8383610b77565b505050565b600061060e6007610c30565b905090565b61062461061e610b6f565b82610c3e565b610663576040517f08c379a000000000000000000000000000000000000000000000000000000000815260040161065a906121d7565b60405180910390fd5b61066e838383610cd3565b505050565b61068e8383836040518060200160405280600081525061087a565b505050565b60008061069f83610fcd565b9050600073ffffffffffffffffffffffffffffffffffffffff168173ffffffffffffffffffffffffffffffffffffffff161415610711576040517f08c379a0000000000000000000000000000000000000000000000000000000008152600401610708906122f7565b60405180910390fd5b80915050919050565b60008073ffffffffffffffffffffffffffffffffffffffff168273ffffffffffffffffffffffffffffffffffffffff16141561078b576040517f08c379a000000000000000000000000000000000000000000000000000000000815260040161078290612297565b60405180910390fd5b600360008373ffffffffffffffffffffffffffffffffffffffff1673ffffffffffffffffffffffffffffffffffffffff168152602001908152602001600020549050919050565b6060600180546107e1906124f2565b80601f016020809104026020016040519081016040528092919081815260200182805461080d906124f2565b801561085a5780601f1061082f5761010080835404028352916020019161085a565b820191906000526020600020905b81548152906001019060200180831161083d57829003601f168201915b5050505050905090565b61087661086f610b6f565b838361100a565b5050565b61088b610885610b6f565b83610c3e565b6108ca576040517f08c379a00000000000000000000000000000000000000000000000000000000081526004016108c1906121d7565b60405180910390fd5b6108d684848484611177565b50505050565b60606108e782610b24565b6000600660008481526020019081526020016000208054610907906124f2565b80601f0160208091040260200160405190810160405280929190818152602001828054610933906124f2565b80156109805780601f1061095557610100808354040283529160200191610980565b820191906000526020600020905b81548152906001019060200180831161096357829003601f168201915b5050505050905060006109916111d3565b90506000815114156109a75781925050506109ea565b6000825111156109dc5780826040516020016109c492919061210f565b604051602081830303815290604052925050506109ea565b6109e5846111ea565b925050505b919050565b60006109fb6007611252565b6000610a076007610c30565b9050610a133382611268565b610a1d8184611486565b80915050919050565b6000600560008473ffffffffffffffffffffffffffffffffffffffff1673ffffffffffffffffffffffffffffffffffffffff16815260200190815260200160002060008373ffffffffffffffffffffffffffffffffffffffff1673ffffffffffffffffffffffffffffffffffffffff16815260200190815260200160002060009054906101000a900460ff16905092915050565b60007f01ffc9a7000000000000000000000000000000000000000000000000000000007bffffffffffffffffffffffffffffffffffffffffffffffffffffffff1916827bffffffffffffffffffffffffffffffffffffffffffffffffffffffff1916149050919050565b610b2d816114fa565b610b6c576040517f08c379a0000000000000000000000000000000000000000000000000000000008152600401610b63906122f7565b60405180910390fd5b50565b600033905090565b816004600083815260200190815260200160002060006101000a81548173ffffffffffffffffffffffffffffffffffffffff021916908373ffffffffffffffffffffffffffffffffffffffff160217905550808273ffffffffffffffffffffffffffffffffffffffff16610bea83610693565b73ffffffffffffffffffffffffffffffffffffffff167f8c5be1e5ebec7d5bd14f71427d1e84f3dd0314c0f7b2291e5b200ac8c7c3b92560405160405180910390a45050565b600081600001549050919050565b600080610c4a83610693565b90508073ffffffffffffffffffffffffffffffffffffffff168473ffffffffffffffffffffffffffffffffffffffff161480610c8c5750610c8b8185610a26565b5b80610cca57508373ffffffffffffffffffffffffffffffffffffffff16610cb2846104a4565b73ffffffffffffffffffffffffffffffffffffffff16145b91505092915050565b8273ffffffffffffffffffffffffffffffffffffffff16610cf382610693565b73ffffffffffffffffffffffffffffffffffffffff1614610d49576040517f08c379a0000000000000000000000000000000000000000000000000000000008152600401610d4090612217565b60405180910390fd5b600073ffffffffffffffffffffffffffffffffffffffff168273ffffffffffffffffffffffffffffffffffffffff161415610db9576040517f08c379a0000000000000000000000000000000000000000000000000000000008152600401610db090612257565b60405180910390fd5b610dc6838383600161153b565b8273ffffffffffffffffffffffffffffffffffffffff16610de682610693565b73ffffffffffffffffffffffffffffffffffffffff1614610e3c576040517f08c379a0000000000000000000000000000000000000000000000000000000008152600401610e3390612217565b60405180910390fd5b6004600082815260200190815260200160002060006101000a81549073ffffffffffffffffffffffffffffffffffffffff02191690556001600360008573ffffffffffffffffffffffffffffffffffffffff1673ffffffffffffffffffffffffffffffffffffffff168152602001908152602001600020600082825403925050819055506001600360008473ffffffffffffffffffffffffffffffffffffffff1673ffffffffffffffffffffffffffffffffffffffff16815260200190815260200160002060008282540192505081905550816002600083815260200190815260200160002060006101000a81548173ffffffffffffffffffffffffffffffffffffffff021916908373ffffffffffffffffffffffffffffffffffffffff160217905550808273ffffffffffffffffffffffffffffffffffffffff168473ffffffffffffffffffffffffffffffffffffffff167fddf252ad1be2c89b69c2b068fc378daa952ba7f163c4a11628f55a4df523b3ef60405160405180910390a4610fc88383836001611541565b505050565b60006002600083815260200190815260200160002060009054906101000a900473ffffffffffffffffffffffffffffffffffffffff169050919050565b8173ffffffffffffffffffffffffffffffffffffffff168373ffffffffffffffffffffffffffffffffffffffff161415611079576040517f08c379a000000000000000000000000000000000000000000000000000000000815260040161107090612277565b60405180910390fd5b80600560008573ffffffffffffffffffffffffffffffffffffffff1673ffffffffffffffffffffffffffffffffffffffff16815260200190815260200160002060008473ffffffffffffffffffffffffffffffffffffffff1673ffffffffffffffffffffffffffffffffffffffff16815260200190815260200160002060006101000a81548160ff0219169083151502179055508173ffffffffffffffffffffffffffffffffffffffff168373ffffffffffffffffffffffffffffffffffffffff167f17307eab39ab6107e8899845ad3d59bd9653f200f220920489ca2b5937696c318360405161116a919061219a565b60405180910390a3505050565b611182848484610cd3565b61118e84848484611547565b6111cd576040517f08c379a00000000000000000000000000000000000000000000000000000000081526004016111c4906121f7565b60405180910390fd5b50505050565b606060405180602001604052806000815250905090565b60606111f582610b24565b60006111ff6111d3565b9050600081511161121f576040518060200160405280600081525061124a565b80611229846116de565b60405160200161123a92919061210f565b6040516020818303038152906040525b915050919050565b6001816000016000828254019250508190555050565b600073ffffffffffffffffffffffffffffffffffffffff168273ffffffffffffffffffffffffffffffffffffffff1614156112d8576040517f08c379a00000000000000000000000000000000000000000000000000000000081526004016112cf906122d7565b60405180910390fd5b6112e1816114fa565b15611321576040517f08c379a000000000000000000000000000000000000000000000000000000000815260040161131890612237565b60405180910390fd5b61132f60008383600161153b565b611338816114fa565b15611378576040517f08c379a000000000000000000000000000000000000000000000000000000000815260040161136f90612237565b60405180910390fd5b6001600360008473ffffffffffffffffffffffffffffffffffffffff1673ffffffffffffffffffffffffffffffffffffffff16815260200190815260200160002060008282540192505081905550816002600083815260200190815260200160002060006101000a81548173ffffffffffffffffffffffffffffffffffffffff021916908373ffffffffffffffffffffffffffffffffffffffff160217905550808273ffffffffffffffffffffffffffffffffffffffff16600073ffffffffffffffffffffffffffffffffffffffff167fddf252ad1be2c89b69c2b068fc378daa952ba7f163c4a11628f55a4df523b3ef60405160405180910390a4611482600083836001611541565b5050565b61148f826114fa565b6114ce576040517f08c379a00000000000000000000000000000000000000000000000000000000081526004016114c5906122b7565b60405180910390fd5b806006600084815260200190815260200160002090805190602001906114f5929190611a5c565b505050565b60008073ffffffffffffffffffffffffffffffffffffffff1661151c83610fcd565b73ffffffffffffffffffffffffffffffffffffffff1614159050919050565b50505050565b50505050565b60006115688473ffffffffffffffffffffffffffffffffffffffff16611802565b156116d1578373ffffffffffffffffffffffffffffffffffffffff1663150b7a02611591610b6f565b8786866040518563ffffffff1660e01b81526004016115b3949392919061214e565b602060405180830381600087803b1580156115cd57600080fd5b505af19250505080156115fe57506040513d601f19601f820116820180604052508101906115fb9190611e08565b60015b611681573d806000811461162e576040519150601f19603f3d011682016040523d82523d6000602084013e611633565b606091505b50600081511415611679576040517f08c379a0000000000000000000000000000000000000000000000000000000008152600401611670906121f7565b60405180910390fd5b805181602001fd5b63150b7a0260e01b7bffffffffffffffffffffffffffffffffffffffffffffffffffffffff1916817bffffffffffffffffffffffffffffffffffffffffffffffffffffffff1916149150506116d6565b600190505b949350505050565b6060600060016116ed84611825565b01905060008167ffffffffffffffff811115611732577f4e487b7100000000000000000000000000000000000000000000000000000000600052604160045260246000fd5b6040519080825280601f01601f1916602001820160405280156117645781602001600182028036833780820191505090505b509050600082602001820190505b6001156117f7578080600190039150507f3031323334353637383961626364656600000000000000000000000000000000600a86061a8153600a85816117e1577f4e487b7100000000000000000000000000000000000000000000000000000000600052601260045260246000fd5b04945060008514156117f2576117f7565b611772565b819350505050919050565b6000808273ffffffffffffffffffffffffffffffffffffffff163b119050919050565b600080600090507a184f03e93ff9f4daa797ed6e38ed64bf6a1f01000000000000000083106118a9577a184f03e93ff9f4daa797ed6e38ed64bf6a1f010000000000000000838161189f577f4e487b7100000000000000000000000000000000000000000000000000000000600052601260045260246000fd5b0492506040810190505b6d04ee2d6d415b85acef8100000000831061190c576d04ee2d6d415b85acef81000000008381611902577f4e487b7100000000000000000000000000000000000000000000000000000000600052601260045260246000fd5b0492506020810190505b662386f26fc10000831061196157662386f26fc100008381611957577f4e487b7100000000000000000000000000000000000000000000000000000000600052601260045260246000fd5b0492506010810190505b6305f5e10083106119b0576305f5e10083816119a6577f4e487b7100000000000000000000000000000000000000000000000000000000600052601260045260246000fd5b0492506008810190505b61271083106119fb5761271083816119f1577f4e487b7100000000000000000000000000000000000000000000000000000000600052601260045260246000fd5b0492506004810190505b60648310611a445760648381611a3a577f4e487b7100000000000000000000000000000000000000000000000000000000600052601260045260246000fd5b0492506002810190505b600a8310611a53576001810190505b80915050919050565b828054611a68906124f2565b90600052602060002090601f016020900481019282611a8a5760008555611ad1565b82601f10611aa357805160ff1916838001178555611ad1565b82800160010185558215611ad1579182015b82811115611ad0578251825591602001919060010190611ab5565b5b509050611ade9190611ae2565b5090565b5b80821115611afb576000816000905550600101611ae3565b5090565b6000611b12611b0d84612397565b612372565b905082815260208101848484011115611b2a57600080fd5b611b358482856124b0565b509392505050565b6000611b50611b4b846123c8565b612372565b905082815260208101848484011115611b6857600080fd5b611b738482856124b0565b509392505050565b600081359050611b8a816128e0565b92915050565b600081359050611b9f816128f7565b92915050565b600081359050611bb48161290e565b92915050565b600081519050611bc98161290e565b92915050565b600082601f830112611be057600080fd5b8135611bf0848260208601611aff565b91505092915050565b600082601f830112611c0a57600080fd5b8135611c1a848260208601611b3d565b91505092915050565b600081359050611c3281612925565b92915050565b600060208284031215611c4a57600080fd5b6000611c5884828501611b7b565b91505092915050565b60008060408385031215611c7457600080fd5b6000611c8285828601611b7b565b9250506020611c9385828601611b7b565b9150509250929050565b600080600060608486031215611cb257600080fd5b6000611cc086828701611b7b565b9350506020611cd186828701611b7b565b9250506040611ce286828701611c23565b9150509250925092565b60008060008060808587031215611d0257600080fd5b6000611d1087828801611b7b565b9450506020611d2187828801611b7b565b9350506040611d3287828801611c23565b925050606085013567ffffffffffffffff811115611d4f57600080fd5b611d5b87828801611bcf565b91505092959194509250565b60008060408385031215611d7a57600080fd5b6000611d8885828601611b7b565b9250506020611d9985828601611b90565b9150509250929050565b60008060408385031215611db657600080fd5b6000611dc485828601611b7b565b9250506020611dd585828601611c23565b9150509250929050565b600060208284031215611df157600080fd5b6000611dff84828501611ba5565b91505092915050565b600060208284031215611e1a57600080fd5b6000611e2884828501611bba565b91505092915050565b600060208284031215611e4357600080fd5b600082013567ffffffffffffffff811115611e5d57600080fd5b611e6984828501611bf9565b91505092915050565b600060208284031215611e8457600080fd5b6000611e9284828501611c23565b91505092915050565b611ea48161243c565b82525050565b611eb38161244e565b82525050565b6000611ec4826123f9565b611ece818561240f565b9350611ede8185602086016124bf565b611ee7816125b3565b840191505092915050565b6000611efd82612404565b611f078185612420565b9350611f178185602086016124bf565b611f20816125b3565b840191505092915050565b6000611f3682612404565b611f408185612431565b9350611f508185602086016124bf565b80840191505092915050565b6000611f69602d83612420565b9150611f74826125c4565b604082019050919050565b6000611f8c603283612420565b9150611f9782612613565b604082019050919050565b6000611faf602583612420565b9150611fba82612662565b604082019050919050565b6000611fd2601c83612420565b9150611fdd826126b1565b602082019050919050565b6000611ff5602483612420565b9150612000826126da565b604082019050919050565b6000612018601983612420565b915061202382612729565b602082019050919050565b600061203b602983612420565b915061204682612752565b604082019050919050565b600061205e602e83612420565b9150612069826127a1565b604082019050919050565b6000612081602083612420565b915061208c826127f0565b602082019050919050565b60006120a4601883612420565b91506120af82612819565b602082019050919050565b60006120c7602183612420565b91506120d282612842565b604082019050919050565b60006120ea603d83612420565b91506120f582612891565b604082019050919050565b612109816124a6565b82525050565b600061211b8285611f2b565b91506121278284611f2b565b91508190509392505050565b60006020820190506121486000830184611e9b565b92915050565b60006080820190506121636000830187611e9b565b6121706020830186611e9b565b61217d6040830185612100565b818103606083015261218f8184611eb9565b905095945050505050565b60006020820190506121af6000830184611eaa565b92915050565b600060208201905081810360008301526121cf8184611ef2565b905092915050565b600060208201905081810360008301526121f081611f5c565b9050919050565b6000602082019050818103600083015261221081611f7f565b9050919050565b6000602082019050818103600083015261223081611fa2565b9050919050565b6000602082019050818103600083015261225081611fc5565b9050919050565b6000602082019050818103600083015261227081611fe8565b9050919050565b600060208201905081810360008301526122908161200b565b9050919050565b600060208201905081810360008301526122b08161202e565b9050919050565b600060208201905081810360008301526122d081612051565b9050919050565b600060208201905081810360008301526122f081612074565b9050919050565b6000602082019050818103600083015261231081612097565b9050919050565b60006020820190508181036000830152612330816120ba565b9050919050565b60006020820190508181036000830152612350816120dd565b9050919050565b600060208201905061236c6000830184612100565b92915050565b600061237c61238d565b90506123888282612524565b919050565b6000604051905090565b600067ffffffffffffffff8211156123b2576123b1612584565b5b6123bb826125b3565b9050602081019050919050565b600067ffffffffffffffff8211156123e3576123e2612584565b5b6123ec826125b3565b9050602081019050919050565b600081519050919050565b600081519050919050565b600082825260208201905092915050565b600082825260208201905092915050565b600081905092915050565b600061244782612486565b9050919050565b60008115159050919050565b60007fffffffff0000000000000000000000000000000000000000000000000000000082169050919050565b600073ffffffffffffffffffffffffffffffffffffffff82169050919050565b6000819050919050565b82818337600083830152505050565b60005b838110156124dd5780820151818401526020810190506124c2565b838111156124ec576000848401525b50505050565b6000600282049050600182168061250a57607f821691505b6020821081141561251e5761251d612555565b5b50919050565b61252d826125b3565b810181811067ffffffffffffffff8211171561254c5761254b612584565b5b80604052505050565b7f4e487b7100000000000000000000000000000000000000000000000000000000600052602260045260246000fd5b7f4e487b7100000000000000000000000000000000000000000000000000000000600052604160045260246000fd5b6000601f19601f8301169050919050565b7f4552433732313a2063616c6c6572206973206e6f7420746f6b656e206f776e6560008201527f72206f7220617070726f76656400000000000000000000000000000000000000602082015250565b7f4552433732313a207472616e7366657220746f206e6f6e20455243373231526560008201527f63656976657220696d706c656d656e7465720000000000000000000000000000602082015250565b7f4552433732313a207472616e736665722066726f6d20696e636f72726563742060008201527f6f776e6572000000000000000000000000000000000000000000000000000000602082015250565b7f4552433732313a20746f6b656e20616c7265616479206d696e74656400000000600082015250565b7f4552433732313a207472616e7366657220746f20746865207a65726f2061646460008201527f7265737300000000000000000000000000000000000000000000000000000000602082015250565b7f4552433732313a20617070726f766520746f2063616c6c657200000000000000600082015250565b7f4552433732313a2061646472657373207a65726f206973206e6f74206120766160008201527f6c6964206f776e65720000000000000000000000000000000000000000000000602082015250565b7f45524337323155524953746f726167653a2055524920736574206f66206e6f6e60008201527f6578697374656e7420746f6b656e000000000000000000000000000000000000602082015250565b7f4552433732313a206d696e7420746f20746865207a65726f2061646472657373600082015250565b7f4552433732313a20696e76616c696420746f6b656e2049440000000000000000600082015250565b7f4552433732313a20617070726f76616c20746f2063757272656e74206f776e6560008201527f7200000000000000000000000000000000000000000000000000000000000000602082015250565b7f4552433732313a20617070726f76652063616c6c6572206973206e6f7420746f60008201527f6b656e206f776e6572206f7220617070726f76656420666f7220616c6c000000602082015250565b6128e98161243c565b81146128f457600080fd5b50565b6129008161244e565b811461290b57600080fd5b50565b6129178161245a565b811461292257600080fd5b50565b61292e816124a6565b811461293957600080fd5b5056fea2646970667358221220b6e53b374398f456e2cfa4e018530f1b341975d30908e034da605d869b5bf95064736f6c63430008010033",
  "linkReferences": {},
  "deployedLinkReferences": {}
}